:020000040800F2
:10000000180600209D2F0008E92F0008EB2F00089C
:1000100000000000000000000000000000000000E0
:10002000000000000000000000000000ED2F0008AC
:100030000000000000000000EF2F0008F12F000872
:10004000000000000000000000000000F32F000886
:10005000F32F0008F32F0008F32F0008F32F0008F8
:100060000000000000000000000000000000000090
:10007000F32F000849310008F32F000800000000AA
:1000800000000000ED30000800000000000000004B
:1000900000000000F32F000800000000F32F00080C
:1000A00000000000F32F000800000000F32F0008FC
:1000B0000000000000000000000000000000000040
:1000C00000F002F800F03EF812A030C808382418FA
:1000D0002D18AC4201D100F035F80FCCA246AB464A
:1000E0000CA730CF2D1B083F3F197C427F1E544484
:1000F0002D090426F441641EAC4201D300F022F81D
:100100000126334200D0FB1A3343984754465D46DC
:10011000DFE70000C06D0000D06D000070470000F8
:100120000023002400250026103A01D378C1FBD813
:10013000520700D330C100D50B6070471FB51FBDFB
:1001400010B510BD02F09FFF1146FFF7F7FF03F057
:10015000B9F802F0B7FF03B4FFF7F2FF03BC02F0F7
:10016000BDFF00007047000009000000040B000004
:10017000140D00004011000018170000D41A0000F0
:10018000441C0000F8260000842B0000E42D000031
:100190003FFFEDDDCDBFB1A5998F857B736B635CB0
:1001A00056504A45403C3834302D2A2724211F1D03
:1001B0001B191716141311100F0E0D0C0B0A0A0938
:1001C00008080707060605050504040404030303DD
:1001D000033FFFE6CFBEAFA399918A837C76706B15
:1001E00065605C57534E4B4743403D3A3734312F9F
:1001F0002D2A28262423211F1E1C1B19181716150B
:1002000014131211100F0E0E0D0C0C0B0B0A0A0911
:100210000908FFFFF5EBE2D9D0C8C0B6A798908FC8
:100220009497968D7B696165717D80796A5C565A79
:100230006672767062554F535E696D675B4F494DCC
:100240005761645F5448444750595D584D433E429E
:100250004A535551473E393C444C4F4B423935384F
:100260003F4649453D3531333A41434038302D30E2
:10027000363C3E3B342D2A2C32373936302926285D
:100280002E3335322C2623252A2F312E29232122C5
:10029000272B2D2B25201E2024282927231E1C1D1B
:1002A00021252624201C1A1B1F2223211D19181961
:1002B0001C1F211F1B1816171A1D1E1C191614159A
:1002C000181B1C1A1714131416191A1815121112C8
:1002D00014171816141110111315161512100F0FEC
:1002E00011131413110F0E0E101213120F0D0C0D0B
:1002F0000F1111100E0C0C0C0E0F100F0D0B0B0B21
:100300000D0E0F0E0C0B0A0A0C0D0D0D0B0A090A2F
:100310000B0C0C3FFFF6B273DED69B64C1BB875754
:10032000A8A3764C938E6742807B593A6F6B4E320E
:10033000615E442C54513B2649473321403E2D1DDC
:1003400038362719302F22162A291E1325241A1170
:10035000201F160EFFFFF7F0E9E2DBD4CEC4B4ABEA
:10036000ADB5B7AB978C92A1A79C8A8086949A91E1
:1003700080777D8B9088787076838981726B717DB0
:10038000837E716560646F7A7E786A5C565B6874A0
:100390007973665953586470746E62555054606B2B
:1003A000706A5E524D515C676B665A4F4A4E586395
:1003B0006762574B474B555F635E53484448525BF7
:1003C0005F5A504641454E585B574D433F424B5450
:1003D00058534A403C4048515450473E3A3D454EA0
:1003E000514D443B383B434B4E4A413935384048E8
:1003F0004B473F3733363E4548443C3531343B422A
:1004000045423A332F323940423F38312D30373D63
:10041000403D362F2C2E343B3D3A332D2A2C32389A
:100420003B38312B282B303638362F2927292F34CB
:1004300036342E2825272D3234322C2624262B30F4
:1004400032302A252224292E302E28232123282C1D
:100450002E2C272220807870686059524B443E39F8
:1004600034302C2926252323232425272A2D3034F4
:10047000383D42474C51575C61666B7074787B7EA7
:100480008183848585858483807E7B77736E6963B1
:100490005E58514B443E37312B251F1A15110C095C
:1004A000060402010101020306090C10151A202698
:1004B0002D343B424A515961686F767D848A90950C
:1004C0009A9EA2A5A7A9AAABAAAAA9A7A5A29F9BE3
:1004D00097938E8A85807B76726D6965615E5B59C4
:1004E000575656555657595B5E62666B70767C83DD
:1004F0008A91989FA7AFB6BEC5CCD3DAE0E6EBF001
:10050000F4F7FAFDFEFFFFFFFEFCFAF7F4EFEBE66F
:10051000E1DBD5CFC9C2BCB5AFA8A29D97928D89AA
:100520008582807D7C7B7B7B7C7D7F8285888C90B7
:10053000959A9FA4A9AFB4B9BEC3C8CCD0D3D6D91D
:10054000DBDCDDDDDDDBDAD7D4D0CCC7C2BCB5AEB9
:10055000A7A0989088808A949EA7B1BAC2CAD2D91F
:10056000E0E6EBF0F4F7FAFCFDFEFFFFFEFDFCFA1F
:10057000F8F6F4F2EFEDEBE8E6E4E3E1E0DFDFDEEE
:10058000DEDEDFE0E1E2E3E5E6E8EAEBEDEFF0F204
:10059000F3F4F5F5F6F6F6F5F5F4F3F2F0EFEDEB2E
:1005A000EAE8E6E5E3E2E1E0DFDEDEDEDFDFE0E130
:1005B000E3E4E6E8EBEDEFF2F4F6F8FAFCFDFEFF1B
:1005C000FFFEFDFCFAF7F4F0EBE6E0D9D2CAC2BABE
:1005D000B1A79E948A80766C62594F463E362E278C
:1005E000201A15100C090604030201010203040677
:1005F000080A0C0E111315181A1C1D1F2021212288
:10060000222221201F1E1D1B1A1816151311100E51
:100610000D0C0B0B0A0A0A0B0B0C0D0E1011131507
:1006200016181A1B1D1E1F20212222222121201FE5
:100630001D1C1A181513110E0C0A080604030201DA
:100640000102030406090C10151A20272E363E4617
:100650004F59626C768093A5B6C7D5E2EDF5FBFEE7
:10066000FFFFFCF7F2EBE3DCD5CEC8C3BFBDBCBDDA
:10067000BFC2C6CCD1D7DDE2E7EAECEDECE9E4DEBF
:10068000D6CDC2B7ACA0958B827A74706E6E71763F
:100690007D858F9BA7B3C0CCD7E1E9EFF4F6F6F3E5
:1006A000EFE8DFD5CABEB2A5998E837A726C686511
:1006B000646567696D7175797C7F80807F7C7872F5
:1006C0006B635950463C332B241F1C1B1C1F252DCC
:1006D00037435160708090A0AFBDC9D3DBE1E4E542
:1006E000E4E1DCD5CDC4BAB0A79D958E8884818025
:1006F000808184878B8F9397999B9C9B98948E86FF
:100700007D72675B4E42362B2118110D0A0A0C11BF
:10071000171F2934404D5965717B838A8F929290BF
:100720008C867E756B6054493E332A221C17141345
:100730001416191E23292F343A3E41434443413DA8
:1007400038322B241D150E0904010002050B131E5F
:100750002B394A5B6D80818486898C8F93969A9E13
:10076000A2A6A9ADB1B4B7B9BCBEBFC0C0C0C0BF1E
:10077000BDBBB9B6B3B0ACA8A4A09C9894908D8929
:1007800087848281808080818284878B8F93989EEA
:10079000A3A9B0B6BDC4CBD1D7DEE3E9EEF2F6F93A
:1007A000FBFDFFFFFFFEFCFAF7F3EFEBE6E1DBD525
:1007B000CFC9C2BCB6B0AAA49F9A96928E8B8885E8
:1007C0008382818080808080808182828383848410
:1007D0008484838281807F7C7A7774716D6A66629B
:1007E0005E5A57534F4C4947444241404040404174
:1007F0004345474A4D5054585C6064686C70737749
:10080000797C7E7F8080807F7E7C7975716D686267
:100810005D57504A433C352F29221D17120E0A07F7
:100820000503010101020406090D11151A1F252BEC
:1008300031373E444A50565C61666A6E7275787B09
:100840007D7E7F8080808080807F7E7E7D7D7C7CC1
:100850007C7C7D7E7F0000004C341C350009100C30
:10086000100C100C1009410062341C0C13091C09F7
:100870001A091809170918091D0C70341D0C623467
:100880001D0C530C1C0C14091C091A091809170912
:1008900018091A0C70341A0C62341A0E5B091C0CFD
:1008A00013091C091A09180917091809210C7034B1
:1008B000210C6234210C1F091D091C0C1A0918098E
:1008C000150C5634170C39203C301810130C083016
:1008D00018112300180C17091509110C1309150913
:1008E000170C15091309100C11091309150C170918
:1008F00018091A0C62341C091D091F0C8D362309B6
:1009000021091F0E7F3656341D091C0C1A091809BF
:10091000150C62341709180970341C091A091809D2
:100920001709140C623415091709180C8D361A09A9
:100930001C091D0C240F9F36230C3D000039690053
:10094000240C230921091F0C1E091F09210C1D0954
:100950001C091A0C563419091A091D0C19091A090F
:100960001D0C623419091A091D0C19091A092409E8
:10097000210956341F091D090039EC0162341C0C91
:1009800013091C091A091809170918091D0C7034D4
:100990001D0C62341D0C530C1C0C14091C091A0983
:1009A0001809170918091A0C70341A0C62341A0C39
:1009B0009A091B091C0C13091C091A0918091709A3
:1009C0001809210C7034210C6234210C23092409EC
:1009D0002909260C2409220920091A0B610621097C
:1009E0001F0C1C091A091809130B54061D091A0CAF
:1009F0001809160914090E0B5506150C13091009D0
:100A00000E098D360C09070B48067F3609090409C3
:100A1000050907090909110910090E090C09080936
:100A200009090B090C0918091709150913090B09FC
:100A30000E098D360C090B09B6361309130E100971
:100A40008D36100C0E0C090C56340B0C7F366234AC
:100A50000C1010091309140C150C160C5634170C35
:100A600018101C091F09200C8D36210C220CB636DB
:100A70004C34230C240FD436240C240CFF362411C0
:100A800000004D341C350C09130C13090C09130C10
:100A9000130941000C09130C13091009130C130955
:100AA0000E09150C15090B09130C13090C09130970
:100AB0000B0914090909150C15090E09120C120964
:100AC0000B09130C13090C09130C13091009130C4F
:100AD000130911091509100915090E09150C150935
:100AE0000709130C13090709130C130937203E30AB
:100AF0000C0C0E0C8D360F0C0E0C7F3609300C09C9
:100B0000130C13098D360E0C44340F0C7F36070975
:100B1000130C130C130C13090709130C130C130CEF
:100B200013094D340709130C130C130C1309100C83
:100B30000F0C0E0C070C0C09130C13090C09150CE7
:100B4000150958340B09110C11090B09100C100967
:100B50004D340409100C1009040F100F7F360709DB
:100B6000100C10090709110C11090709100C1009C4
:100B70000709110C11090809110C11090709110CB9
:100B800011091409110C11098D36070C130C7F364D
:100B90000C09130C13091009130C13090E09150C79
:100BA00015090B09130C13090C0913090B09140976
:100BB0000909150C15090E09120C12090B09130C61
:100BC00013090C09130C13091009130C130911094B
:100BD0001509100915090E091509000C44341109ED
:100BE0001109110911091109110913091109100934
:100BF00010091009100910091009100C1109110928
:100C00001109110911091109130911091009100914
:100C100010091009100C4D34040C050C040C020FC3
:100C2000090C070C060F050C040C020C010F020F37
:100C3000070F0009070C070904090C0C0C0905092A
:100C40000C0C0C09070F0C09130C13091009180CD4
:100C500018091109180C1809130F0C0F3C3400095E
:100C60000709000907090411000000000000000046
:100C700062010502F0060000ED040000150000000E
:100C8000EC01000000000000000000001A09000054
:100C9000ED040000140000006900000000000000E6
:100CA0000000000054341C351F0C1F091F091F0CC5
:100CB0001F091F0966341F0C1F091F091F0C56341A
:100CC0001F0C41001F0C1C0961091F0C1C0C1F0C80
:100CD0001C0921091F0C24092609280E24092611A4
:100CE0001F0C1C0961091F0C1C0C1F0C1C0921097D
:100CF0001F0C24092809260E28092D203130241123
:100D000000396900103024100039EC01000C6C34FB
:100D1000280E69092B0C280C280C26096409260FBB
:100D2000280E69092B0C280C280C26096409260FAB
:100D300056341F0C1C0961091F0C1C0C1F0C1C09CC
:100D400061091F0C24092809260E28092411000F07
:100D5000000051341C35130C000C130C000C6534CE
:100D6000130C120C110C4C340E0C41000C0913091D
:100D7000100913090C091309100913090C091309A7
:100D8000100913090C0913091009863613090C09F7
:100D9000130910097F3613090709130912091309EA
:100DA000110913090E0913090C0913091009130974
:100DB0000C091309100913090C0913091009130967
:100DC0000C091309100986361309070913091709B5
:100DD0007F36130943204C300C09130910091309FD
:100DE000110913090E0913090D300C091309100913
:100DF0001309070913091109130960340C09163581
:100E00001309130913090C091309130913090C0910
:100E10001309130913090B091309130913090C0901
:100E20001309130913090909100910091009050903
:100E30000C090C090C09070911094C341109110995
:100E40001C350C091309100913090C0913091009A1
:100E500013090C091309100913090C098636130923
:100E600010091309070913091709B63613090C09E4
:100E7000130910091309D4360C11000000000000FA
:100E8000520101023C0B0000ED04000015000000BF
:100E9000EC0100000000000000000000EA0B000070
:100EA000ED040000130000006900000000000000D5
:100EB0000000000044341E35180C170C150C130CE0
:100EC00012091A091E0C15091A091E0C1109180914
:100ED0001D0C150918091D0C13091A091F0C170FF1
:100EE000180E1809180C130C180E1809180F4100C9
:100EF00018091C0918091C09180C110C18091C09DF
:100F00001F091C0918091C091F091C0918091C09BB
:100F10001F091C0918091C091F091C0913091A09B2
:100F20001F091A0913091A091F091A0918091C09A6
:100F30001F091C09180C110C18091C091F091C0990
:100F400018091C091F09170915091C0921091C0981
:100F5000100917091C09170915091C0921091C0981
:100F6000863613091A098D361F091A097F361809A2
:100F70001C091F091C09180C110C18091C091F0950
:100F80001C0918091C091F091C0918091C091F093B
:100F90001C0918091C091F091C0913091A091F0932
:100FA0001A0913091A091F091A0918091C091F0926
:100FB0001C09180C110C18091C091F091C09180917
:100FC0001C091F091C09110918091D091809130C0E
:100FD000130C9120B43018091C091F091C09180FA3
:100FE0001D092109240921091D09210924092109B3
:100FF00018091C092B091C0918091C092B091C09B3
:101000001A091E0921091E091A091E0921091E09AA
:1010100013091A091F091A09130F1E3018091C0990
:101020001F091C09180F180C170C150C130C1209AA
:101030001A091E0C15091A091E0C110918091D0C94
:10104000150918091D0C13091A091F0C17091A098B
:101050001F0C18091C091F0C8D3618091C09B636FF
:101060001F0CFF361811000044341E35180E1A09E3
:101070001C091F0924092809260F210C210923090D
:10108000240C210C1F0C1D0C1C0C1B0C1A0F00092E
:101090001009130918091C09180913091009000976
:1010A00010091309180918031C085C0E41000039C7
:1010B00069000038ED021F0F2409280929092D09AC
:1010C000280F240F1F0F24092909280924090009C2
:1010D0001F092B091F0929091F0926091F091F0FAD
:1010E0002409280929092D09280F240F1C0F2C0970
:1010F000260926092609240F260F280F280C290C5B
:10110000280F240F1C0F2B0928092809280900097A
:101110001F092B091F0929091F0926091F091F0F6C
:101120002409280929092D09280F240F1D0F280932
:10113000240923092309692089301F0F0039EC0194
:101140000038ED04000918091C091F0924092309A6
:1011500024092609240E21091F091E091F09210936
:101160001F0E1C091A0C1E0921092609240923092E
:101170002109230C210C1F0F23301F110039EC0112
:101180000038ED04180E1A091C091F092409280942
:10119000260F210C21092309240C210C1F0C1D0CE6
:1011A0001C0F1C0F181100031C031F031803640EEF
:1011B000640F000044341E351F0C1F0C180C1F0C4C
:1011C000210F1D0F210C1D0C180C180C230F1F0FC5
:1011D00018111C0F1F0F41000039EC010038ED04FD
:1011E000240E260928092B092D0930092B0F280F59
:1011F000240E260928092D092B0928092611240E59
:10120000260928092B092D0930092B0F280F300E2C
:1012100030092F092809280928092D0F2F0F300E12
:101220002F09320930092F092D092B0F280F300EF5
:101230002F09320930092B0928092611240E260905
:1012400028092B092D0930092B0F280F2D0E2F09E6
:101250003009280926092809542061302411003951
:1012600069000038ED02210F210F180F180F210F10
:10127000210F1D1112301811003969000038ED02DC
:101280001F0C1F0C1C0C1C0C210F1E0F210C1D0C05
:10129000180C180C230F230F1C1110031303180331
:1012A0001C035C0E5C0F0000000000005A010003EC
:1012B0004C0D0000ED020000150000006900000068
:1012C0000000000000000000000F0000ED0400001E
:1012D00015000000EC01000000000000000000000C
:1012E0004C100000ED020000150000006900000035
:1012F000000000000000000040340E3500091C0909
:101300001A0918091A09180913091C35150955096C
:101310000E351A091C351A065C065A065C061A0FA9
:1013200000090E351C091A0918091A0918091309A8
:101330001C35150955090E351A091C351A065C06A7
:101340005A065C061A0F0039AB01000C33341C0935
:101350001F0921091F091C091A095A091C061A0626
:101360001810000918091A0918091C091A0918097E
:10137000180958091A061C065C10000C1C091F09E4
:1013800021091F091C091A095A091C061A061810F6
:10139000000918091A0918091C091A091809180955
:1013A000580C393400090039EC01180918091C09D6
:1013B0001F0940341F095F0F5F0921091C061A0924
:1013C0001806580E180918091C091F091F095F0F74
:1013D0005F0921091C061A091806580E393400390C
:1013E0006900240921091F091C09180933340E3525
:1013F0001A0C1C0C39341E0C210940341C351A09F6
:101400005A090E351A091C0C46341E0C0039EC0121
:101410009A091C3561094C34210F610924092109FD
:101420001F09403400090039AB011C091C095A0985
:10143000180C1C0C410021091F0F180918091C0960
:1014400021091F095F0F1C091F09240C2409210C05
:101450001C0C1F095F101C091F09240C2609240CF1
:10146000200E1F0C2309210C1C0EBB20CA301A0FA2
:101470002109240921061F064C341F0940340009A4
:101480001C091C095A09180C1C0C9F301A0F210C3E
:101490001F0C1F0C210C39341C0C1A0C33341A0984
:1014A000180958100039690000090E350038ED059B
:1014B000130915091709393418091A091C091D09D6
:1014C00040340009280926092409260924091F098E
:1014D0001C35210961090E3526091C3526066806CA
:1014E00066066806260F00090E3528092609240914
:1014F000260924091F091C35210961090E35260911
:101500001C352606680666066806260E2606280688
:10151000240F000F000040340E35180E130E100C6F
:10152000110E130E15091709180E130E100C110EBB
:10153000130C333400090038ED0415091709180E8F
:101540001809180F110E110C1309150C130E13099D
:10155000130F100E13091809150913091009180E95
:101560001809180F110E110C1309150C130E13097D
:10157000130F100E39341309130F4034000C1C35AF
:101580001C0C0E351C091C355C0E0E351509150991
:1015900015091C351509550F000C1C0C0E351C09BE
:1015A0001C355C0E0E3515091509150939341C3525
:1015B0001509550F33340E350E0C100C3934120C3E
:1015C000150940341C350E094E090E350E09100C54
:1015D0004634120C1C358E0915094C34110F510973
:1015E000150911090E351309403400114100180E78
:1015F000130E130C100E170E13091709150E100EEB
:10160000100C170E100E13091709150E110E0C0CE5
:101610001009130917091C350D094D0F0E358620C9
:1016200093300009150911090E0911091509180649
:1016300057064C341709403400116C300009150965
:1016400011090E09110915091A09180900091709C4
:10165000000917090009393413091509170933342A
:1016600000091009130910091309100911091509B6
:101670001309100911091309393415091709180933
:101680001A094034180E130E100C110E130E150902
:101690001709180E130E100C110E130E1509170949
:1016A000181100002C340E35130E100E0C0C150EF4
:1016B000170E11091309130E100E0C0C150E170C32
:1016C000333400090038ED0411091309130E13090E
:1016D000130F150E150C1109110C00091C351509F5
:1016E00015091509180915091509150955091306CC
:1016F000180658100E35130E1309130F150E150C7E
:101700001109110C00091C351509150915091809CD
:10171000150915091309530C393400090039AA00B9
:10172000100910091309170940341709570F5709F1
:101730001809130611091006500E10091009130993
:1017400017091709570F5709180913061109100629
:10175000500C00093934003969001C0918091709AF
:101760001309100933340E35150C150C3934150EC8
:1017700040341C35150955090E351509150C46342C
:10178000150F4C341C35180F58091D091809170975
:101790004034001141001C091C091C0918091809D2
:1017A0001809130913091709170917091C091C0936
:1017B0001C0917091009150918091C091809150928
:1017C0001809150C100913091709130917091C0921
:1017D0001709100900091C3511091D090E351D0CCA
:1017E0001D091D091D0900091C3510091C090E35AC
:1017F0001C090009150915091509AD20BA300009A1
:1018000015091509150918091D091D061D064C3471
:101810001D09403400117930000915091509150911
:10182000150918091D09000900091A0900091A09F2
:1018300039340009130911090E0933340009130959
:1018400018091309180939341309150918091C0C4A
:10185000000E0038ED051309130913094034130E67
:10186000100E0C0C150E170E11091309130E100E85
:101870000C0C150E170E11091309101100000000B1
:10188000000000001401060390110000ED040000A8
:1018900014000000690000000000000000000000CB
:1018A000AE130000ED02000015000000690000000A
:1018B00000000000000000003C150000ED050000E5
:1018C000150000006900000000000000000000009A
:1018D00040341C351F0E21091F091C091A0918095B
:1018E000240F210E61082303210C1F0C1C0E180964
:1018F0001A091F091D0921091F091A091C091D09B7
:101900001F0E21091F091C091A091809240F210F8C
:101910002D092B0928092409290328086809260C00
:1019200024091F091C091F09240F0039EC0141007B
:101930001F0E21091F091C091A091809240F210F5C
:101940001F0C1C0C1C0E18091A111F0E21091F094F
:101950001C091A091809240F210F21091F091C0944
:1019600018091C0C1A0C18114C340039AB01240F47
:10197000230C210C1F0F1C0F4034210C1F0C1C0CBE
:10198000180C1A10000C0039EC011F0E21091F0958
:101990001C091A091809240F210F6E2021091F099B
:1019A0001C0918091C0C1A0C1811000021091F0928
:1019B0001C0918091C0C1A0C1810000C303040348B
:1019C0001C350C091309100913090C091309100916
:1019D00013090C091509110915090C091509110933
:1019E00015090C091309100913090C091309100929
:1019F0001309070F130C130C0C0913091009130911
:101A00000C091309100913090C0915091109150905
:101A10000C091509110915090C09130910091309F5
:101A2000070913090E0913090C10000C0038ED0406
:101A300041000C091309100913090C0913091009B5
:101A400013090C091509110915090C0915091109C2
:101A500015090C091309100913090C0913091009B8
:101A60001309070F130C130C0C09130910091309A0
:101A70000C091309100913090C0915091109150995
:101A80000C091509110915090C090E09100911098C
:101A9000130C070C0C0F100C130C4C340C0913090D
:101AA00010091309070913090C0915090C09130971
:101AB000100913090C091309100913094034120CF9
:101AC000130C150C140C130F070C070C0C0913093D
:101AD000100913090C091309100913090C09150938
:101AE000110915090C09150911091509A7200C0977
:101AF000130910091309070913098D360E09130973
:101B00009F360C0C130CD436180F00000C09130967
:101B100010091309070913090E0913090C0C130CFA
:101B2000180F3A302C341C351F0E21091F091C09CF
:101B30001A0918091D11180C180C180F13091F0980
:101B40001D0921091F091A091C091D091F0E210958
:101B50001F091C091A0918091D112D092B0928092B
:101B600024091F0C1D0C1C091F091C091F09240F27
:101B70000038ED0241001F0E21091F091C091A0936
:101B800018091D111F0C1C0C1C0E18091A09130929
:101B90001509170918091A091C091D091F0E210921
:101BA0001F091C091A0918091D11180C000E1C091F
:101BB00000091A09000918091C091F0921091F0930
:101BC0002809260932341F0F1F0C1D0C1C0F180F7B
:101BD0002C3421092D091F092B091C092809180972
:101BE00024091A092B092F092D092B09290928096C
:101BF00026090038ED041F0E21091F091C091A09C6
:101C000018091D117D2021091F091C091809000947
:101C1000280900092609000C1C0C280F00002109C6
:101C20001F091C0918090009280900092609000CC8
:101C30001C0C280F0038ED022930000000000000C5
:101C40007E01FF0368170000ED040000150000008E
:101C5000AA0000000000000000000000561800006C
:101C6000ED02000014000000690000000000000008
:101C700000000000BC190000ED0500001500000088
:101C8000AA000000000000000000000059343235B6
:101C90002B0C2B092909280F240C24092309210FB7
:101CA000241170344100280C28092609280F260C1D
:101CB00026092409260F240C2609240921092109B3
:101CC0002109210924092409210921091F0F210CB7
:101CD000240921091F091F091F091F0921092109B9
:101CE0001F091F091C0F1F091F092409240928099E
:101CF000280926092409260C26092809240F0D2065
:101D0000240F210F261100004C3432351C0C1C0905
:101D10001A09180F150C15091309120F1B0F180FAC
:101D20005C34180C18091709180F170C1709150936
:101D3000170F150F110F120F170F110F170F180C88
:101D4000170C180F1C0F1E0F1D0C1D091F091C0C52
:101D5000130C180913091809170918091309180C85
:101D6000170913091709150917091309170C15097C
:101D700011091509180911091509180C1209150975
:101D80001A0C130917091A0C11091509180C100956
:101D90001309170C180C170C180F1C0F1F0C1E0C16
:101DA0001D0F1C0F1B0F1B0F1C110000000000005B
:101DB0002A010202241B0000ED02000018000000AE
:101DC000280000000000000000000000A01B000030
:101DD000ED020000180000002800000000000000D4
:101DE0000000000040341E35280C28092909280C61
:101DF00028092909280C28092909280C280C290C4C
:101E000029092B09290C29092B09290C2909280939
:101E1000260C0039AA00280926062406640E46343A
:101E200024092409260928092909280E2909260632
:101E30002409260B23062306240C0006210621066E
:101E40002306240C24092609280923062306630FE8
:101E5000240923062106610E2D092B0929092809C9
:101E600029092B0E2409240C000929062806290C0F
:101E70000006290929062809260924092309260616
:101E8000240B64104C34000C240923062406640C33
:101E90001C091D061F065F11000C210921092109DB
:101EA0001F091D0921091F091A061C065C101D0EB9
:101EB0001F061F065F0E1C091F0E21062106610F5B
:101EC000000C1D091F092109240900092406260602
:101ED00023092109230661061F095F0F000C24094D
:101EE000230924092306240B1C061F065F0F210962
:101EF0001F091D091C061D065D0E1D061D06200975
:101F0000200B1F061D0620061F11000C21092306A9
:101F1000240B2409240926062806680E2809290905
:101F20002809260624092806660C0006210923062E
:101F3000230C2307240726072609240624066410F9
:101F40005334000C240923062406640C1C091D06C6
:101F50001F065F11000C2109210921091F091D0914
:101F600021091F091D061C065C0F5C091C091D09BF
:101F70001D091D091F061F065F0E1C091F0E2106E5
:101F80002106610F000C1D091F09210924092409DC
:101F9000260923092109230661061F095F0F000C8A
:101FA00024092306240B23091C091D0621066106AA
:101FB0001F0B5F0C21091F091D091C061D065D0E64
:101FC0001D092009200620091F061D0620061F11D5
:101FD000000C21092306240B2409240926062806BF
:101FE000680E280929092809260624092806660CEE
:101FF000000621092306230C2307240726072609A8
:1020000024062406640F00095F34210621065100CE
:1020100029092809290626092306630C000621063A
:10202000230623062B0929092B0929062806680CF3
:102030000006280628062606240C0006210621068E
:102040002306240921092409280928092606260629
:10205000660F280926062406640E24092409260989
:1020600028092909280E290926062409260B2306F2
:102070002306240C0006210621062306240C24092D
:102080002609280923062306630F240923062106AF
:10209000610E2D092B092909280929092B0E24096C
:1020A000240C000929062806290C000629092906FE
:1020B00028092609240923096C25BE312606240B8C
:1020C000640F0038ED0500396900000746342B071E
:1020D0002907280E2406230B2406260B1F09210995
:1020E000240F2309240926092409210C2109240984
:1020F0001F062B0924061F09000B1A061C061D06C5
:102100001F0621061F091F06230924062606280686
:102110002B0C00092B062D062B0C00092B062D0677
:102120002D06301028092606240921062406640CF1
:102130001C091F065C061C065A0618091A0B1C0609
:102140001D061F062106240623091F06260900383E
:10215000ED0200060039AA005F342106210616317F
:102160002606240B640F280926062406640E24097B
:102170002409260928092909280E290926062409DF
:10218000260B23062306240C00062106210623061F
:10219000240C24092609280923062306630F240991
:1021A00023062106610E2D092B0929092809290971
:1021B0002B0E2409240C000929062806290C0006E8
:1021C0002909290628092609240923092606240B9A
:1021D000641053340039EC011F0E2306240B1F0C2E
:1021E0002B09290928062906690F00092409290E47
:1021F0002909290928090009260624062409240991
:1022000024092409640F64114C34003969001D0944
:102210001A06240B240923091F06240B260933342C
:102220002606280668096810641100002C341E3543
:102230000C091009130910090B090E0913090E09DD
:1022400009091009150910091809100915091009BB
:1022500005090C0915090C0904090C0915090C09D3
:1022600002090E091109150907090E09130C0C09B9
:1022700007090C090709100907090C0907090409CE
:102280000B0910090B0913090B0910090B0909099E
:10229000100909091009150910091509100904097F
:1022A0000B0910090B0913090B0910090B09050982
:1022B0000C0911090C0907090E0913090E09040973
:1022C0000B0913090B09090910091509100902095D
:1022D0000C0911090C0907090B0913090E090C094E
:1022E000130918091A091C0C070C41000C090709ED
:1022F0000C090709100907090C09070904090B094A
:1023000010090B0913090B0910090B090909100918
:1023100015091009180910091509100904090B09F4
:1023200010090B0913090B0910090B090509090903
:102330000E0C07090B090E09070904090B090E0CFD
:1023400009090C0910090909050909090C090909F4
:10235000110909091109090907090B090E090B09D6
:1023600010090B090E090B090C0907090C090709CB
:10237000100907090C09070904090B0910090B09C1
:1023800013090B0910090B09020909090E090909AA
:1023900005090C0911090C090C0907090C090709A1
:1023A000100907090C090B09090910091509100979
:1023B000180910091509100904090B0910090B095E
:1023C00013090B0910090B0902090909110C070966
:1023D0000E09130CD620DF300C09070910090C096F
:1023E000130910090C09070960300C0907090E09C7
:1023F000100C13090C0C33345100020909090E0C9E
:1024000007090E06130B050904090B09100C09092D
:102410001006150B070905090C091109050C0C0913
:102420000909050907090E0913090E091709130CF3
:1024300013090C0913091009180C130910090C09C8
:102440000B0913091009170C130910090B090909C5
:1024500010090C09150C10090C09090907091009C4
:102460000B09130C10090B09070905090C09110CBC
:1024700007090E09130C04090B09130C09091009AB
:10248000150C0E091509180C07090E09130C332534
:1024900079310C0907090E09100E2C34070C0C09B0
:1024A0001309180913090B09130917091309090955
:1024B00010090C0910090709100913091009050969
:1024C0000C0911090C0904090C0910090C0902096D
:1024D0000909110C07090B090E0913090C09130945
:1024E000180913090B091309170913090909100918
:1024F00015091009070910091309100905090C0924
:1025000011090C0904090C0910090C09020909092F
:102510000E09090907090E09130C3334E7300C09B9
:1025200007090E09100C0C09070C0C0913091009F6
:10253000180C130910090C090B0913091009170CC1
:10254000130910090B09090910090C09150C1009C8
:102550000C090909070910090B09130C10090B09CB
:10256000070905090C09110C07090E0913091109BE
:1025700010090B09130C09091009180C1A0915097F
:102580000E0C070C130911090C0907090E09100993
:10259000130918091A091C0930340C091309180900
:1025A0001309100913091809130911091509180944
:1025B0001D0C1809110910090E091509180C070935
:1025C0000E09130C05090C091109050C1109050C5C
:1025D00004090C091009040C1009040C0039EC0161
:1025E00002090E09110C8636070F26340C0913094F
:1025F0008D361A091C095C0F5C11000040341E3531
:1026000024091F09240C24091F09240C24091F096B
:10261000240C24091F0924091F0924092109240C59
:1026200024092109240C24092109240C230C170C4A
:102630000039AA00001100110011333400101F09E5
:102640001C061D061D0E2409230E21091F0E1F093D
:10265000210E2109210C0006210921061F091D094F
:102660001C091A091C0F240F0039EC010011000C81
:10267000170C1C0C170C180F1C0F170F1C0C170C29
:10268000150C180C170F170C1A0C180F150F180C27
:102690001D0C1C0F1A0C1F0C000C1C091A091C091C
:1026A0001A061C0B18061706570F000F000E15060A
:1026B00015061809180B180618061A061C1010091A
:1026C0000E090C10210C1F0F000F1D0C00061D0918
:1026D0001F061F0C1F071F071F071F091C061C06CC
:1026E0005C102C341C115C0C1C0C1F0C1C0C180FE7
:1026F0001C0F1C0F1F0C1C0C150C180C170F170CA3
:102700001A0C180F150F180C1D0C1C0F1A0C1F0C8F
:10271000000C1C091A061C0B1A09130915061806C9
:102720005806170B570C000F1A0F1D0F1C1010091D
:102730000E090C10210C1F0E1F091F091F091F0B6A
:102740001F065D0C00061D091F061F0C1F071F0733
:102750001F071F091C061C065C1039344100210CA0
:10276000000B1F065F0F230C000B2406640F210CC7
:10277000000621062106230624092109240921092E
:10278000230B2306630F1F0C0039EC011F111F11CF
:102790001C111F111D0E2409230E21091F0E1F09D4
:1027A000210E2109210C0006210921061F091D09FE
:1027B0001C091A09DE20F9301C113334240F000FD4
:1027C000180F00091F0921092309210F000F00110B
:1027D000280F1A0F18031C035C0B5C0F0006230B59
:1027E000210F000F00110039AA003934B1301C113B
:1027F0000039AB011F0E1F095F0F1F0E1F095F0F6E
:102800001C0E1C095C0F1C0E1C095C0F1D0E2409FC
:10281000230E21091F0F210F210C0006210921067B
:102820001F091D091C091A091C110039AA000011F1
:1028300000113334210E210921091F0C1D09210E1D
:102840002109610F1F0E1F095F0F1D0B1D0B1C09B6
:102850001A0B1C0B1D0926341F1158110000000013
:1028600000000000880102037C1C0000ED02000053
:1028700015000000690000000000000000000000DA
:10288000C4200000ED0400001500000069000000F5
:10289000000000000000000094240000ED02000091
:1028A00015000000690000000000000000000000AA
:1028B00040341C35300F2F0C2D0C2B0C280C240C05
:1028C00024092609280F260E240924114100003965
:1028D0006900280F2609240928092609240C300C30
:1028E0002D09300E2B0F280C240C2611280F260939
:1028F000240928092609240C300C2D09300E2B0C34
:10290000280B2406260C260C240F0038ED0464093D
:102910001F09240926094C342335280F26092409C8
:1029200028092609240C300C2D09300E2B0F280CF9
:10293000240C26114034280F2609240928092609C9
:10294000240C300C2D09300E2B0C280B2406260CE1
:10295000260B2606240F64091F09240928094C3474
:102960002F0E3009320C2B0C2B0E2D092B0C300C9A
:10297000300C2D0C290C2D0C2B11280F26092409A5
:1029800028092609240C300C2D09300E700C403417
:102990001C352B0C280B2406260C260B260679202A
:1029A0008E30240F0039EC010009240928092B0975
:1029B000300F2F0C2D0C2B0C280C240C240926096D
:1029C000280F260F2411003969000F30240C00391C
:1029D000EC013010240C300F320C341174113334EC
:1029E0002B06FF36300334037409741000004034A2
:1029F0001C35110F120F130C140C150C110C130FA6
:102A0000170C130C0C0C150C130F00396900410046
:102A10000C091309180C10091609180C11091809CA
:102A20001D0C120918091B0C13091C091F0C0E0997
:102A300015091A0C130C150C160C170C18091C0987
:102A40001F0C16091C091F0C150918091D0C120969
:102A500018091B0C13091C091F091C0913091A0961
:102A600015091709180C140C130F4C340C09130911
:102A70001809130910091609180916091109180966
:102A80001D091809120918091B09180913091C093D
:102A90001F091C090E0915091A091509130C150C33
:102AA000160C170C40340C091309180913091009E6
:102AB000160918091609110918091D09180912091A
:102AC00018091B09180913091C091F091C091309F6
:102AD0001A091509170918091309100913090C0F08
:102AE0004C340038ED0413091A091A091A0913099C
:102AF0001A091A091A0913091809180918091309D2
:102B000018091809180911091509150915090E09D7
:102B100011091109110907091309090913090A09FA
:102B20008D3613090B0913097F360C09130918098F
:102B300013090A09130916091309090911091509C5
:102B40008D3611090E3506060C069F360F06120645
:102B500015061806B6361C351B0E40347F36130991
:102B60001C091F091C0913091A091509170900383E
:102B7000ED04C420E73018091309100913090C0FDC
:102B8000110918091D091809120918091B09180942
:102B900013091C0914091C0915091C0914091D092C
:102BA000130918091C091809130917091A09170923
:102BB0000C0C150C8A36130F7F36113015091809C5
:102BC0001D091809150911090C098D36090908098B
:102BD000110918099F36140911090C09B63608099C
:102BE000050946360E350C0913090C090E091009A2
:102BF000130918094F361A091C091F092409260947
:102C000028092B096A36300933341C35320900395A
:102C1000EC01131100002C341C352D0F270F240C50
:102C2000230C210C200C1F0F1D0F1C0C1D0C1C0F46
:102C30000039EC0141001F0F1F0F240F270F240F35
:102C40001E0F1F0F1F0F1F0F1F0F240F270F240F03
:102C50001D0F1C091F091D091A091C0F32341F0FF3
:102C60001F0F240F270F240F1E0F0E3500091F0CF6
:102C70001F0C1C351F09230321081F092C341F0FAB
:102C80001F0F240F270F240F1D0F1C10240932348F
:102C90002809290F290F280F280F290F240F230C8B
:102CA000240C250C260C1F0F1C0F1D0F27102C3475
:102CB000240F1D0F51205F301C112D0F270F240CE6
:102CC000230C210C200926091F0F1D0F1C0C1D0CA5
:102CD0001C0F10301D0C29101D0C29102B1128342D
:102CE0006B1100032403640B64100000000000005B
:102CF0005201FB0348270000ED0200001500000010
:102D0000EC01000000000000000000008628000028
:102D1000ED02000014000000AA0000000000000006
:102D200000000000AE2A0000ED02000015000000C7
:102D3000AA00000000000000000000005C3418350C
:102D4000340E3409340C32093409370F390C370C7E
:102D5000340E3709340C320C30114100370C39096C
:102D60003709340C300C320E3409320F2D0C300977
:102D70002D092B0C300C340C37093409320F340E6A
:102D80003409340C32093409370F390C370C340E3E
:102D90003709340C320C30111020340E3709340C42
:102DA000320C3011000C00004034183500092B099A
:102DB00030092B092F0F3209300930092F092D094D
:102DC0002F09300C00092D0930092D092F0F30096A
:102DD0002B0929092B09280F340C35093409300C2B
:102DE0002B0C2F0E30092F0F290F280C2B0C300F16
:102DF0002F0F00092B0930092B092F092B092F0947
:102E00002B0930092B0930092F092D092F09300C06
:102E1000000930092B0928092B0C290C28092B093A
:102E200029092B09280F3409320930092F093009E3
:102E30002F092D092B0929092D0930092D092C09E4
:102E40002D092F0C2D092B09290C280929092B09DB
:102E50002809300E30092F0F0009300932093009D6
:102E60002F0C2D0C3209300930092F092D092F099B
:102E7000300C000930092D0930092F092E092F0CBB
:102E8000300C2F0C2D0C2B0C2A0926092D0930098A
:102E90008D362F0FB6363009280926092809D43671
:102EA0002410000030342035180F1D0F1C0F1D0C8E
:102EB0001C0C1A0F1F0C1D0C1C0C1A091C09180FD6
:102EC000181018091C091F0F1F0F000C150C180CE7
:102ED0001C0C1F0F5F091D091C091A09180F1D0F73
:102EE0001C0E1C091D0C1C0C1F0C1C091809170FAB
:102EF0001811180F21091F091D091C091A091D099C
:102F000021091D091C0F1D091C091A0C18091A0991
:102F10001C0918091F0F1F0C200C210E21091F0C62
:102F20001D0C1C0E1C091D0C1C0C1A0E1A091F0C62
:102F3000200C210C1F0C1D0C1C0C1A0F1F0C1D0C3F
:102F40001C091F091D091F091C10000000000000BA
:102F50004301F703D42B0000ED020000180000002D
:102F6000AA0000000000000000000000402C00004B
:102F7000ED02000018000000AA00000000000000A0
:102F8000000000003C2D0000ED04000018000000CF
:102F900069000000000000000000000018480168FF
:102FA000184A1143016018480168184A114301602A
:102FB00017480168174A1140016064204002401E12
:102FC000FDD115480168154A114009D0144815492A
:102FD00001601448006880F30888134800680047BF
:102FE0001248804712480047FEE7FEE7FEE7FEE78B
:102FF000FEE7FEE70F4810490E4A104B70470000ED
:1030000034100240010000000C00005008000000D5
:1030100000000050F3FFFFFF10000050020000000E
:1030200008ED00E00000FF1F0400FF1FFD30000856
:10303000C100000818020020180600201802002015
:1030400001E004C0091F0429FBD28B0701D50280CF
:10305000801CC90700D00270704700290BD0C3073D
:1030600002D00270401C491E022904D3830702D5F6
:103070000280801C891EE3E70022EEE70022DFE7E2
:10308000704770477047754600F024F8AE4605005B
:1030900069465346C008C000854618B020B5FFF702
:1030A000A9FF60BCB64600260027C0C5C0C5C0C584
:1030B000C0C5C0C5C0C5C0C5C0C5403D4908490060
:1030C0008D46704710B50446C046C0462046FDF701
:1030D00042F810BD00487047000000200149182048
:1030E000ABBEFEE726000200704700000248016800
:1030F00002220A4302607047047C00400E480168C7
:103100000122114301600D4841680D4B0B400D49F0
:10311000096819434160110602680A4302600168A8
:103120008901FCD5816802220A43826081683822C5
:103130000A40102AFAD170470020024000100240D5
:103140000000FFFF100FFF1F10B515480146303972
:1031500000230B60134A1178134C2478A14200D14C
:1031600010BD11784900114C615E1478312C01D0EA
:1031700013785B1C1370012905DB002202600838FC
:103180004909016010BD0346083B00221A6000296E
:1031900001D4026010BD89024942C90B016010BD13
:1031A000402C0140C6000020C70000206200002023
:1031B000F0B583B000903F4B5868102101430820C0
:1031C000814359600521D9600A071168C025A943C8
:1031D0001160D168402631438027B943D16018621D
:1031E0001968012001431960196804240C431C600C
:1031F00031490C78002C02D1304C24780C700197A6
:1032000002950D782D4C2478AC4201D96F1C01E059
:10321000274600D20F702A4D2F78002F01D00F259E
:1032200000E01E2509786918A14210D2791CC8B2A5
:10323000884200D10746224C2770032F16D01F2F3B
:103240001CD1009800281FD0791E022013E0391FDE
:10325000009C002C029D019F02D0CCB21C2C18D3E4
:10326000C8B200211C280BD308460AE000980028A9
:103270000CD0791E0320029D019F03E0002006E090
:1032800001200F4C217004E0022000E00320029D89
:10329000019F1946083909684907FAD5996B1368DF
:1032A000AB431360054B1970D1683943B143D1600A
:1032B00003B0F0BD08240140C8000020CA0000206F
:1032C000C900002000B59FB0FA48173801210991C4
:1032D0000F04F94D04242C60F84969600026AE60A3
:1032E00005211E91296029683942FCD0401E010445
:1032F000F0D109980107F248031F1A680A431D9389
:103300001A60F0490A6822430A6001460C390A68CB
:10331000232313430B601E98030719680C220092A5
:10332000914319600146DA6808201C900243A243C9
:103330000893DA602C60E1486860AE6029602A6812
:103340003A42FCD00898026992070CD57D221201FE
:10335000DA482C606860AE6029602B683B42FCD084
:10336000521E1304F5D15F22D24302925F32D64B34
:103370001A6008980260DE60C660099BD902D048D6
:10338000026814910A43026098020E90421ECF49CF
:10339000CA6098034A6A0D9002434A624E600A4628
:1033A000203A13680998034313600D22D2020B469A
:1033B000083B1868104318600B46086810210591F7
:1033C00008431860C2480368802119434023994389
:1033D000016009990B03016A19430162BB48001F90
:1033E000016811430160B9490868169318430860E1
:1033F0000B46089A10681C990843A0431060106A95
:10340000D021014311621868B24908431860084688
:103410002038B14A189010601868084318601846A0
:1034200014380390099A02601005A54B19680143EE
:103430001960D007A9491C9088609005A84B1A68AC
:1034400002431A600722CA600C620868099B18438D
:10345000086008682043086008460838006840078C
:10346000FAD5886B9F4908709F488057C1B20028E1
:10347000019104D43F2905D97F201B9015E0FF203E
:103480001B9012E01F2902D93F201B900DE00F294D
:1034900002D91F201B9008E0072902D90F201B909A
:1034A00003E0032900D803221B9203200002089A9C
:1034B000116881430998000206900818106080493D
:1034C0000868099B18430860106830218843106021
:1034D000D0680599084320218843D06083481B9910
:1034E00001707749086A18430B460862186A80071A
:1034F000FCD5099880045969014359611D990868F0
:103500001C9A104308607A4A104608380168022362
:1035100004931943016010680999084310600E98DC
:10352000906048046C490860FCF71CFE0998C003D1
:103530000790704A1088411E1180002800D0D3E106
:103540006C486D4901806D4800786D4909780143E8
:1035500000D093E06B490888401C088080B2202886
:1035600000D28EE00898059981620A2004222A6020
:10357000524969600023AB601E992960296839426D
:10358000FCD0401E0104F1D11A92039803604F4809
:1035900003628361103803600168C907FCD04B499E
:1035A0000868594A104008601D9305E00120FFF7A4
:1035B000FFFD00281D9B59D14D48016802221B9236
:1035C0001143016027214902504802680A43026002
:1035D0003B4938390B60BFF34F8F30BF4C4802680E
:1035E00001231C931A430260354A3C3A1368494848
:1035F000034049480068184310601C980006304A90
:10360000403A13680343136010688001FCD50868D2
:103610001B9A10430860086838220240102AFAD129
:103620001A9828603D4868601D98A8601E98286018
:103630003B4B28683842FCD018780899096949073B
:103640000AD4421CD1B2914200D108461870032816
:103650000AD01F28AAD107E0001FC0B21C281D995C
:1036600004D32F480170A1E7401E1870174908685D
:10367000184A1043086003981C99016000202149F2
:103680000880274A11780898006940070AD44A1C24
:10369000D0B2904200D1014621480170032941D1A6
:1036A0000A4640E000201070091FC9B21C293ED212
:1036B00001203CE0FF03000010E000E074BB0000CC
:1036C0004010024010ED00E000140050202C01409A
:1036D000000400502020000000E100E00824014028
:1036E00008270140DC01002068010008CC00002010
:1036F000107C0040D0000020F20500000C020020E9
:10370000EE01002060000020DFDFFFFF00700040BE
:10371000002002400000FFFF100FFF1FF40E00000A
:10372000F501002000221F29049800D0104600282F
:1037300067D00022099902286DD0012800D0C5E089
:103740001991002A00D089E0EA4A10781E9948436E
:10375000401C1070E84909780140E84800780818D2
:10376000421C019B1146D21AC8B29842FAD8E34AC9
:1037700011700A0667D0E24A127882426ED0E04A9F
:1037800011700022DF490A70DF490A808000DF499A
:1037900040584318DE4803609879DE4908709888DD
:1037A000DD490880194602981D90DC4B1C9108E009
:1037B000002018601D9818304033521C1D900028BE
:1037C0004CD0C8798242F3D2402118461B921A93FA
:1037D000FFF752FC1A9B1C981D994018014668314E
:1037E0001960816EC94A89185960C16E891899603B
:1037F000416F8918D9601C99C06F80181B9A186195
:10380000D8E700201D90FFF7D3FC002815D0002139
:10381000099A022891D1002A0CD119910420BF499C
:1038200000220A604031401EFAD1BD480280B448EF
:1038300002701999002949D142E009991D9A104650
:103840000228E8D079E7B5482146002202604030DE
:10385000491EFAD1B2480280A9480270199800287E
:1038600034D1B0480078401CC1B2032900D90120EE
:10387000AC490870010623D0C1B2AB4A12888A4213
:1038800024D0A94A11800021A84A11800799A84A8A
:10389000118001210902A74A1180401EC0B200997F
:1038A0004843A54B1958A54A116018184268511889
:1038B000A34A116000894008A2490880A24803E099
:1038C0000020994908809948002101808C4800789F
:1038D000002809D09148C08BC00701D0182000E013
:1038E00028200899059A0A5098480660854A107859
:1038F000411E1170002800D0D0E2002188481091AC
:10390000018001210F917F4801707F4800880028C5
:1039100001D0401E01E0804800887B4908807D4836
:1039200000781190109A10467C490C920A4610E0DB
:103930001A9A916117994978803848430C9941182F
:1039400077480C91018040321399481C032900D319
:1039500046E2139010680028F5D0104634301790D6
:1039600081781098401C10901B9100291A9218D051
:1039700065480088002800D0AAE11B98401E1799CE
:103980008870508D002800D1A2E11146D28C098D9B
:10399000914200D895E1101880B2884200D394E19A
:1039A00094E1108C1D9010463930159009990EE065
:1039B0000F2101408006800F159A11541C981D900C
:1039C0001A9A1B98C0B2414241410028D0D11D989B
:1039D000401C1C90108453681D9880B240001993BD
:1039E000185A00235385D384D083189A10420ED0DE
:1039F0001699084238D10105890F159B5A5C002A97
:103A0000DCD0521E5A54524908401A9A35E0C2047A
:103A1000D20E52D0511ECAB24EA112928A5C179990
:103A20001B928A70810600D101E10D99084200D0F5
:103A3000A3E011990A183F210B910A404B49895C78
:103A4000343A0C2A00D30B090907C90E484A515AC7
:103A5000D9400B461A9AD184010600D5BEE01C99C4
:103A60001D914006ADD4E8E01499084208D10E99A2
:103A700008421A9A36D13649084010841D90A0E7B2
:103A80000721090208400F9A5102884200D197E0AD
:103A90001102884200D185E000281A9A00D0F5E092
:103AA0001D98801C1D9010841C9880B240001999AC
:103AB000085A16494018906083E7420600D577E718
:103AC000820600D484E11F21084000D1BCE0119A95
:103AD000121810490A70102800D2BCE0203A119246
:103AE0000A706BE78105890F7944097949008F4491
:103AF00041C7B4BDDC010020CC000020CB00002079
:103B0000EE010020F4010020E80100206801000817
:103B1000E0010020F0010020E4010020DC00002092
:103B2000EC010020D80000200C0200200802002038
:103B3000100200200002002034420008F80100209A
:103B4000FC0100200402002014020020D400002008
:103B5000FF03000002040608090C1012182024308C
:103B600040486090C05054A8FF000000DA410008AF
:103B70001A4200081799087020E71D99891C1A9AA3
:103B80001D911184C1B29183936113461C9989B22E
:103B90004900199A515AF84A89181A46596140063B
:103BA0004BD50EE71D98801C1A9A1D9010841C9806
:103BB00080B240001999085AEF494018D06000E7D8
:103BC0001D98801C1A9A1D9010841C9880B2400089
:103BD0001999085AE84940181061F2E60A931C99AD
:103BE00089B24900199A535A3A46803A1A40802AB3
:103BF0001A9A05D119461D9B9B1C1C9313840B46D6
:103C00001299072900D22AE75A0B10D1802B0ED324
:103C10001A460B990A400AD0119AD1180B9A1140F2
:103C2000D64A525C34390C2933D3110932E01C993D
:103C30001D911A9A400600D5C3E60020D085179939
:103C4000C87008715086BCE6CD4800688179CD48BF
:103C500011910170B2E61192B0E6C0B2C84909688C
:103C600089884143C809C8490880A7E61A9A53863B
:103C700017990B71C0B2116809694143118605E0BB
:103C8000C0B21A9A11688968414391851C981D90A9
:103C900097E600211D91BDA1129BC95C1207D20EAF
:103CA000C04B9A5A1D9BDA401A9B1A850A9B934275
:103CB00001D2D21A00E09A1A5143090B1A9A51857F
:103CC000CDE6101A80B2884200D808461A9AD084ED
:103CD000D08B800600D136E6908D002820D0D18D83
:103CE000002919D1179BDB781D93D3681C931D9A6B
:103CF0009A1852781B92179A12781B9B5A43120AF1
:103D0000179B5A701D9B1C9A127893421A9A03D2E1
:103D10005A1C179BDA701A9A814205D8481C04E095
:103D200017990878487001E00020D085D08B4004B6
:103D300039D490681346928C110A405CD98C8A1849
:103D40009A841A8E002A41D05A8E002A1A461FD110
:103D5000179B1B791C9312691D921D9AD2185278D9
:103D60001B925A1C179B1A711D9B1B781D92D2B275
:103D70009A4201D81D9A1C92179A1C9B13711B9B87
:103D8000802B02D9FF2212029B181A9A5918D1844B
:103D90001146128E498E491C8BB2934200D30021EA
:103DA0001A9A5186C6E553691D939169080A80B233
:103DB000181880781346928B8A189A611D9B1B886D
:103DC0001B029A4200D9B3E51146B1E51A46B1E5A6
:103DD000C80703D000201A9A1060B4E51A9AC7E504
:103DE0001098C0B2411E8841B44909780029099948
:103DF00000D001460029B44850D10068006800286E
:103E000047D00023AE490B70AE490B80A74942183A
:103E10001B92AD4802609079AC4908709088AC491B
:103E20000880194602981C90AA4809E000201860F2
:103E300018461C9B18334030491C1C93002B2DD076
:103E400003461B98C0798142F0D21A91402118464E
:103E50001D93FFF711F91B981C9BC0180146683190
:103E60001D9A1160816E914A89181D9A5160C16E28
:103E70008E4A89181D9A9160416F8C4A89181D9A43
:103E8000D1601A99C06F894A80181D9A1061104636
:103E9000D0E7002090490880884908708E48805FEC
:103EA000954A11680818106083490988002900D1D3
:103EB000D0E01D908C4801688C480268914229D25C
:103EC00088480288069B1A4229D11C9113467849DA
:103ED0000B408B4200D0B7E0D2B202808548008808
:103EE0001B9002B252008648835AD9088348007852
:103EF000199002095007179300D5C918930702D5E6
:103F0000179B5B08C9181A90D20765D017988208CA
:103F1000881862E071490E8067490E8099E0D2B23C
:103F2000079B1A4302800A7874480270714800881F
:103F30001C9001B249007248405AC308510713D57A
:103F40001B18910712D4D10701D081085B180F21EB
:103F50000A4063480188082A9BB225D2C9186948DB
:103F6000814224D3674922E09107ECD541085B18D0
:103F7000D107EAD1EBE7C04668010008DA41000842
:103F8000E0010020F0010020E4010020000000001A
:103F9000000000F0B284755741392B1C15333118DD
:103FA000100000001A420008C91A00D231464C48DD
:103FB00001805107090F5448415A1C9809184D486F
:103FC000018009B2002904D4592930DB582101802D
:103FD0002DE0002101802AE0084641490A8819990C
:103FE0004BB2002B83B207D41A99D21845488242AB
:103FF00000D3444A084603E0D21A1A9800D200229D
:1040000037490A80020F4048825A1B9812183948D3
:10401000028012B2002A04D4592A1C9904DB5822C7
:1040200001E000221C990280491C2F4801602C48A5
:104030000188079A514009B2CC224A43110E511807
:10404000090A264A118027482949098802885118F7
:1040500001801D980021214A525E8018264A106076
:10406000134A823A904202DD1148813803E0114A36
:104070009042104601DA204A106024480078401C23
:10408000C2B2322A00D001461B4800681D90204869
:104090000278CBB29342FBD01C4A127852001D48E2
:1040A0001D9B835219480170FFF743FA680100080D
:1040B000808000000080FFFF0C020020EE01002045
:1040C000F4010020E8010020E0010020F0010020C0
:1040D000E4010020DC000020EC01002008020020A8
:1040E0001002002000020020F8010020FC01002046
:1040F0000402002014020020D40000201602002038
:1041000018410008FFFF0000CA410008C700002056
:10411000C6000020620000200700080009000A0015
:104120000B000C000D000E00100011001300150014
:10413000170019001C001F002200250029002D0077
:10414000320037003C004200490050005800610036
:104150006B00760082008F009D00AD00BE00D10094
:10416000E600FD0017013301510173019801C101FF
:10417000EE01200256029202D4021C036C03C30318
:1041800024048E04020583051006AB0656071208A8
:10419000E008C309BD0AD00BFF0C4C0EBA0F4C113E
:1041A0000713EE1406175419DC1BA51EB62115259E
:1041B000CA28DF2C5B314B36B93BB24144487E4FB5
:1041C00071572F60CE696274FF7FFFFFFFFFFFFF13
:1041D000FFFF020004000600080058595A5B4041E6
:1041E00042434445464748494A4B303132333435DF
:1041F000363738393A3B20212223242526272829FF
:104200002A2B101112131415161718191A1B000156
:1042100002030405060708090A0B2D0E050FEA0F15
:10422000DC10DD11EC120C143E158116D817431961
:10423000C31A0000F6660008DD0700002B0000002E
:10424000615F0008950700002B000000584200083D
:10425000091D00002B00000000000000000000000D
:10426000000000000000000000000000000000004E
:10427000000000000000000000000000000000003E
:10428000000000000000000000000000000000002E
:104290007F8BDE3077099C20C692999B07B49920CA
:1042A00038093B986C848C581ACDB7A163B2CB1BEC
:1042B0007113D0CA4822C08C5821BB3B21289B785F
:1042C000B1AD2207D0994079098C2812C1B91203E7
:1042D000B89A14D1382829DF2196A1C9495090DA1B
:1042E000296290CA1823A1BA1933828E90803804AB
:1042F000B8DE22142B8F2802C1AA4182A99021D8AE
:104300005821BBFB04048A0F12919929309D119307
:10431000991F508899A934B38E3812FB0112991D48
:10432000219890C003219F3083EB2934BA8B42A29D
:10433000AAA438820F0907E82848890B01B4B19371
:1043400090229E4822AD2B72B099939398401D0104
:104350008C3182FB2A34D89812883A391D808C051A
:1043600092D93C06B991229A6A1919AA309300FC95
:104370001086A809328C1940A8AC25A0B2E9131206
:104380000D4C18898923E00A1498988924088E38DE
:10439000A2B1BA37C02B30889A2923F1B90593AA64
:1043A0002C64AA2B03B1989887C29841089B4B862E
:1043B000E8810399890103B81E6098990006CA2014
:1043C000209A090141AA2F30890B2884EB12A208F8
:1043D0000999450A0F38C3998391E2012910BB6BF3
:1043E00072AA1D4299891811B1F0A2140A1B681A09
:1043F0003B2B90C2F283A6AA22029C1923900F396C
:104400009192F940002B1D10A1B2B83396DB200425
:10441000AA8822F218A29924993E4A88B812E30980
:10442000149A0A13D192E10015E908239B2890F30E
:104430009807C920301C098A3281BD3927CB3880C2
:1044400008C1A292A5982923F82B33E1BA24A3AA84
:1044500028104A82BF32139F1934EA49291AA8A2A8
:10446000A4A3092C70A08D42B1BB1484B998142A5E
:1044700040AF2103AC1952980C1018B2E8949290F6
:10448000901945FA1812D019218A011D3900F288B5
:104490002110AB0B55D18A23B8100A406ABB209378
:1044A00011FB3C17DA289291B1881281AA5D0000B5
:1044B000AC3087F911811A083B10B0F0039191CA12
:1044C0004104BD40929AA39013A29F51A080995994
:1044D00095F9828209193A39A8AC34D319A9182759
:1044E000FB20201C981830B8C915B180C83016AD13
:1044F000280399C08025998D03D3209B7B82F88166
:1045000011088A3A21B88C23D338F91816CA182111
:1045100009B91906888B02D223F92B25D80902A2E2
:10452000801E11001D2AA258A91D34BA1B3290A862
:10453000BA26B3AB7A0089A59D73981C10C29298D5
:1045400020929A5B110B92CC72A28D40080AA0387F
:1045500093F08041AA83D950828E1092A0B10104B9
:10456000C98843B920D94987CA301089A94882F13E
:1045700080218A10F81005BB48208AD00103D8A1F9
:10458000229912FA2887C9101109993A23CA9985E4
:104590009169D91806D910201A992A33EA901389FB
:1045A00020F80917C9080309998936AB99869049FB
:1045B000B83B07E80011088A2A13D88802914AC933
:1045C0002917CB108391CB3097B029119982FA40EB
:1045D00094BB58110A9C41921D199180B4BA54A2FF
:1045E0000E49280A8C41901C10A039A28D71A08B15
:1045F0004288C01A259B19289883F10907B91932F6
:1046000080AE50A28A019010A28F62980C4911C905
:104610001A339A1A800814EB2805D9C114008E2188
:10462000801B888193982D5098D91087F01001999C
:10463000811809B2D21182A83F7B880B22A81918D1
:1046400008498A0C2498EC84850D389009199191B9
:10465000101F30A0F98297B80102A9A2211AC0C385
:1046600050291D3F20C91811A8A083B2A2A093050C
:10467000A99F72B1AB1798A812180AD08301008FB6
:1046800079808C31908A38B2292A1C01B7F0311018
:104690000F28909820911A190810C2CC62B48C503F
:1046A000800B5A0898901288094F7B990912B0889C
:1046B00011A1883A22CA391E63F92983B0B0321891
:1046C000AA5B11AAB5F105D080139A09312B8C3160
:1046D000090B020FB7F30101091C40A88A23C10985
:1046E00018780A1E12A8B884A4894908C0E4820276
:1046F0009C58109B2902B8A18418091F03F32B961C
:104700009808592A8A0822991F40B81C24C908937E
:1047100090300D29A5D812820F40898A82C4910059
:104720002A58AA2883FB22A38E20111D19C084C1F8
:1047300091038C7A109C1083C901A228808B44CCF1
:104740004803AC4A12CA20C2B197B101904B21BBB9
:104750003C15D900B38021996C9A1096C84911ABC9
:1047600010A3B897A100986A20CB3A87D882A208F4
:10477000302C0A9904B3EA2104AC30B20B16AA38E3
:104780000A7A29DA0097B831181E10B0B2910408DD
:104790000D6A81AB32C119033E3C1C10D3D022A25A
:1047A0002E490A2A91B1A130308C1F31C10C329AA6
:1047B0007B080AB0A6A3812E48A98894A020201EB9
:1047C0002B30C0A88107B97A809A95A1914A282BED
:1047D000BA21A7A9420A3C388ACB04A6B12B70891A
:1047E0002C81E1A3A4085C2989A882A5A812884B82
:1047F000498A9B24B2C82905E018018A12A1BB7B13
:1048000004D8B005A28B23AA38A5F2A806181D4B20
:1048100081A993812A488A9C2394D94A32AD488839
:10482000B0A5931D6A18B8A8879029392C2A80F959
:104830008294B11A718A0981801881FA02329B2F01
:1048400030AA0982B380049F6938AA1D85C0102848
:10485000191B011F1883F80003AB3821B929C3A91C
:1048600004A6BA70118F1092E182184B4B9899856B
:10487000B10A51880B01A1B112F13822AF1815D835
:104880000028190BA2A115898F50819B8022B84A5C
:10489000195A81DC8017B8086A198AA183128D1C05
:1048A00051D2A09184091A3800A8AD7093AA0923A7
:1048B000A0F802122C8E2885C0980300B928870919
:1048C0000B4D02E1A00201C828411C8B2914F2986B
:1048D0000130B81C23088E2A04D5988130B03B489B
:1048E00088DA8106C2992858900D1191D80052B0EB
:1048F0009A297299A903A4B83B64A8AA297398AA13
:104900002102A90D5280BA0B17919B2822B80D11D4
:1049100033EA1C20028A2989C0820300F84A92A93E
:104920008927A0C8991315C09980280200BA59890F
:1049300000818A2397AD1B2503F9992104B92B51D6
:1049400000AC0A33249E0A31A2AAA226C8A9383292
:10495000898D58188C2933C0B9890608B951929BA2
:104960009B6312C09B8122C8988522AB9C42210880
:104970009C0A13DE0143089B2DA296B28821C8D859
:104980001022A28B0148AA7B31C19A0A2D5829BA5C
:10499000210598D90016089E1802B08A3006B00981
:1049A00023981F9997918A08221ABC0317F398300D
:1049B000391D2B29000C093192986C329E9901B552
:1049C000B11020A8A8C387213A2F3C2B1D1000A8A6
:1049D000B096183A88B7B488382C1A08002A1A21D9
:1049E000D191A7A4E2A2C3D3A104182C2B1911D0F2
:1049F000B3B692882999118988518B4A98A6B2C773
:104A0000020B90936C4C1A98A1A2A6A1A3B2A3E3A7
:104A10008093290B81D51028BA046C4C09890000B9
:104A20009008D281188979194B9992F112B80258DD
:104A30000F80110A1A02A198205D291E391B408B94
:104A40004E18893B782D198829002B184C5A1C893F
:104A500020980931190C1B45CA20182B2E680CB15F
:104A600092939189B007B11C31880D59882A904AD8
:104A70006A2BAB86914D298989B4B293B6A802B34B
:104A8000A2C2C294A2A0012089C90193880011F09A
:104A900009049080194B99A7A905C2A82020B90B39
:104AA000A4C4C39231298D9205C1B1A31A2014F177
:104AB0009A630A1D598889B1B29191341E3A1AE25B
:104AC00080701C3F7B100C2A38890A18118A995271
:104AD000F79068088A0912A0992093B9890503FB09
:104AE00058301F3B29098A0102A93A38A0A04388FF
:104AF0000B1994F81920328E8891811B890408F3D0
:104B0000A97911E00190908A30970199A8A994435E
:104B1000AB30F9903349C11980198BC71298CB2556
:104B20002B0A1F1100C8A1B4A271308B9D010B820A
:104B300080207AC3B81028890F39599A1C1298D14D
:104B4000339900D969088A0230F30AA408310C09A4
:104B50009700191CC001B20B828215138E91A50C0F
:104B60009080F10181A806B891A0B7B27091A91107
:104B7000B133CB580D1008A2970189B29A891FA1B1
:104B800041193C9B1719988A208F0981419182B362
:104B9000FB92791990A022B1901A879AA284FCF70F
:104BA000F7855F2B293B99C2819231A99A9A71E2CC
:104BB00033BAB41E201889BB37B3EA0B6203CB0C9F
:104BC00041239C9D4823D8AA1116B19C1963A1BA10
:104BD0009945018C8B0107B09A012599AB1964C2E4
:104BE000CA025091CA883396BB2A4114CB8C223416
:104BF000CA0E1131A8AD4831B1DC1121A3DB194235
:104C000092E91A3220BA9E311499BD300690AA2B2F
:104C10006391C99A2501AA9C2225A9AC3954A8C838
:104C2000095182AABB5286898C3942A0BB2B729350
:104C30009BAA1317A8AC2052C1890A3133AC8F014B
:104C400024B999983484E99A1324C98A086281DACC
:104C5000892342CBA88134C3F8882222AC0A0834C5
:104C6000B3FB1A4211DB909134A1FA292112AD98BD
:104C70008116B1DA284181CA88015398BC4A328230
:104C8000CD80810690CA3821A3AC091045A8BC4943
:104C90002294BC91921798BB6A11B3AB80202699DD
:104CA000AE2023D3AA8021538A9F3821D38A092199
:104CB000529A9F0133C0990941419B8F1033D89874
:104CC0002A3023FB9A021799A9003184DB994223E9
:104CD0009CAB4040B3DB897281A90B0125B0BB2C92
:104CE0004580BB8913178A9D281598AA1951839C62
:104CF0009C3333AC8D287289D8183192BBA94315E7
:104D00009ABD2125B09B1B7408C98932139DB941F6
:104D100003B1BD3873A0A90A5310CA8B32169BE9A0
:104D20004028A1CA1052A0C82A3121BC8C51129A25
:104D3000BC4248C1C8285198E0282882C999330349
:104D4000C98E2131C0DA304198F8005808B988423C
:104D500010E9A01222B9AC5140A8BB011592DB09A1
:104D600085850B8C8385881E2983900E3911C2C8D6
:104D7000284080E98022208DB986210B8C81151A6C
:104D80000E0883A28A3C2191BA2C7828BAA0625AD4
:104D90000BD8940188B8A594181C1901901A3A20D0
:104DA000A8C9922499E0C3A5B4808802805C4D3BD9
:104DB0001A091808A8B3B6B4C2A301A1A0A2435F00
:104DC0003D2B29899080B3C6C3A282800829290976
:104DD0004E3C4A2B1B2829D8D4B3A4A2C2A3114A03
:104DE0003D3C4B2B2A2A1990B1C4A3C4B2B3A4D31F
:104DF000A3106B4C2B3B2A0990A1A4B3C3C2A3A25E
:104E0000A2A09681084C6B3B1C1A0191B0A10492A0
:104E1000C9880392D8004200E9888293E9A086A35A
:104E2000A13A5A3B0C2A49191B6A208B89491AE975
:104E3000B313492A0A403B1F1E10181A4A6A2A1B3C
:104E4000890890E1A394926B4A898889C1B3C5937C
:104E50008100382A0C8A8A79088880718990190A19
:104E6000A3BACA1694E3A20100998988A9B69692BA
:104E7000111BA1189B9B83F7C284118988181D48B8
:104E80001A0E10482B3C19194A1F38098B2188E843
:104E9000B6034A1D4A1A19080888919A25A00A0CD7
:104EA00083A7C35B80B0E2020198AA06A21B80A779
:104EB000C1E4B3B5C4C3A3A2305F2B89A1C4C3A30B
:104EC0009110291A2A19182A4B2C5C2B394D0BE307
:104ED000C5A300392C084C0908A001201E182999E7
:104EE0009000C6C492488A801892F3F392A2C282BC
:104EF00081A1A01083A9C903961A3C10181E88949A
:104F0000A890D4A5482B5C1A2A292B3B3C6C1A2A62
:104F10004A3A2E1A91A180A0A6A381B8C5B5B28243
:104F2000A083909083019B4C2D01592FA0A4913810
:104F30009BB2B50098A6A2A48109193D3C8BB5325D
:104F40001C7B5B0AD0B5B3016B3B1A90A2A2A28076
:104F50002A4D4A4C4B2A3B0AC1B4493C3A2C80C2E8
:104F6000A3A1B2C28110195C394A2B0B99940B2072
:104F7000997939601C3B3C3F899010281A69198A3D
:104F8000099AB600128A7B4908C8883A202B8B21DF
:104F9000040D02E2C2E2B294C3B4810128CA949023
:104FA00098000A70185B3C3C4A8A1A20B919153AD5
:104FB0008A3A7C2D98C3112B89603A0C1A400A3C1E
:104FC0002A3A2A4C80C8A187082D19B3B498682BB7
:104FD000A89085A0D18301888921A8CC97D3A391DB
:104FE0001818880980711D4E0890808902B0A1139D
:104FF000B6C893A286D01993089B172A6B1E29184E
:10500000B00A33909C5A319A0F2093992F21B0C047
:10501000A1B7B6383B1B201BD8B4968880395B0AF1
:105020004F1989B428803A8D404B0BA3318EB2D5ED
:10503000828828120CE90589C8A4234E9AB2842AD2
:10504000A84819C4A05C2919890198C4591DF3A462
:10505000782CB8B5114B1AB1A3081990B295829A61
:105060001A7D0990A5212F0BA2A4584DA9C2932007
:105070002BA0B5A1297B1989B3A43C3E90C3A320E2
:105080002D8BA395693D99B182210AC1B4D4813990
:1050900018B8B6212F1A80C3213E99C2A3311D90A2
:1050A000A2B2185A000BC3221F0981E5113A999840
:1050B00091140CD383892A5A901980128FA024A9A5
:1050C000582CF39128189AC6121B8A02A27B3B081F
:1050D000AAC205092909E7813919C0B3232F8A9289
:1050E000023C4B98C100019098A6C3904908F30177
:1050F000390AAA94421FA18299394AC18100018EBE
:105100009004C1582CE29110100CC4031C1A10B169
:10511000583D889991130A1980F7813988C1B413D1
:105120002F9993816B3BA8A1002089C196B190591A
:1051300088F382381D99A4123E09A1B1385BB0A250
:1051400083908C8104F0314BB99001521FB1840AD5
:105150001A20E1214BA8A881140C0100F3885A08F9
:105160008AC7032D899291693CA8C201100AB196A1
:10517000B1804909B0A5232F0CA2936B3BB0D3019A
:1051800039A9B396800A1902C8136A9AA983043F01
:1051900099A6901949B8845A89A8A185098012F165
:1051A000B138289AD6843A1E8091384D09B0814989
:1051B0001A88A3B3992A21F194480ABAC4853A0AF5
:1051C000B4A21A4AA0827A3A0B0B38294C39C1F2A0
:1051D000003989A213498FA083002910D2C0889377
:1051E000A29324898F8994A26929A0A82B39C0860B
:1051F0002189E908382A3A13A3AE0C491849223903
:10520000AF9A02C39387010D0B28182884C3D81ABC
:105210003918185390F1AA11202B4408F8A90182DB
:10522000801581D09C2811185881E2BB201280582B
:1052300081C6E80010801002A2EC88128008159147
:10524000EB0A0201193480FA0C3800095300C90E28
:105250002900803222BBCF283009280609BD194019
:10526000292A0591EA1C38282A5000E89B30300989
:105270003082A1FF0821011A9222BF0A401189033E
:1052800021FA8E102209299282EF00309190A422F7
:105290009F2B5A10880048A98F283189084900BEE1
:1052A0003A78A1A110409C9B0387880921C0D900AE
:1052B00043900A2CA5D2092987099A22109D1970BA
:1052C00008A9192180AC3843A9DA2122C8F831286D
:1052D000BAC004411C8B20A38A1D9305A989788933
:1052E000A1298A9792BAA52298BA0263C990491057
:1052F000C5A80804A089C073B8B62919A1913DB802
:10530000177B1C8810090A08A39790D083288BB2BA
:105310004810C4881B225B2F2B18A2C4003B390AFB
:105320009D0322D0C5112EA0B5282B819289890119
:10533000408DD0A58391C882A2B498809007699BC4
:10534000F2035A9BB114480B1C3938AABA23170927
:105350008E9194201F19A2030D09B2962B88A7A243
:10536000895C00B1B915418CAB7981D5082800B8AA
:105370009A8622BBD295920A4D39180D0802198FD0
:105380002138F1A02180982EB2870A192898E210BE
:1053900010012F0B93A2F2485A99F29211391F80F3
:1053A000A3801B4980F28082920A0B8791AA505AEF
:1053B00099B040380C8B94848A0A13C5C0102180A0
:1053C000AE93249AAB8497B23E19A3D1085829BA58
:1053D0002912B4E8912308CB7A00C2B038418ADAA6
:1053E0004180F4B122301D9B1293E2980104898C14
:1053F0007A80910B0003E3B86910888B0814B2DA45
:105400004A32A0FA1048D3B13B6890C0185900A99D
:10541000B91485998B1115A9AB7A31E1A84948A037
:10542000C81841B2C92A23948C1D1085B89941121D
:10543000E8992042C00B4C02C38A3C4893BB0C3411
:10544000029D8B0307A88C1105A8AA3832A4BD8839
:1054500026009C8A2333DB8D4012A9CA0143A2FA9D
:105460000850A1B01A3814C18E1023898D1A220455
:10547000DA0B3214ABAC932690FA1030B2C8093074
:1054800033BAAF2143A99B3B60229D8C13428CA968
:105490000070A1C03A28848AAB206390FA8013A3DD
:1054A000B9D88305A1FA1140A8C1190085901E2919
:1054B0001188B98822349C8F82140AD9815828D93E
:1054C000183993880D2A4092BBA9078399AB003500
:1054D000A2FA886108980B1823929F094308C9898A
:1054E0000115C0B9115398E8001895A01B280409AC
:1054F000BB923281EA192194B8B01200A2E948B1F6
:10550000862AA0999140F3820CA323C8A8893498D5
:10551000D02A3350CBC80152B9A1398411AB092C20
:10552000581E8128985809989C9015831FA94408F3
:10553000D9A830718A893B25A0DA1A2213AC9A3295
:1055400027999E0814399DA17080B0A86A80930B9A
:10555000A916029C8B4803908FA1261ABBD2432A1E
:10556000F1004A91D2082AA3031F1A20A2C03B3B94
:1055700097101F9884389CD21229B8B3385B90B129
:105580000A4A3004E91C7980F3182CA3A51A2D01CE
:10559000921B0E83238D8B0206990B2A06A28C3B4D
:1055A00013839F9997220D9902320FA88213899C29
:1055B0002032B8BC9107229FA014208EB103210C89
:1055C0009B2241CAD00203A1AC016309CCA31438C9
:1055D000ADB11430ADD222380C0B3822F8B0021322
:1055E00018AF815209CBB423388EA82330BDD22204
:1055F000300C8C2032D9B98387009C106009BAA284
:105600008601AB8061499C9083038B0D20238C1F06
:105610008084908B0005802F1B83B2998987921C10
:105620003B30B1F08012B3F8017A19A9803091F1C2
:10563000A140288B1B6928AAC09484A08A10140A50
:105640002F3B01E389A1A7C3005A3A091C1901E2C3
:10565000B281221A8C29322C1F8984C3890895C2F1
:10566000915B28889B2011F2C1C385800A0995A10E
:10567000294F08A0193A81F5D311118A8A21121DE8
:105680002E4A81B81A4081F8D21318AA8804112F23
:105690003D3990B92040A89AF397901A18A3F3B215
:1056A000793A8B0921381F1B11B2D01021C089D241
:1056B00087880A38A2F2A258190B8904913F2B104F
:1056C000B0B03150AB3A90A7F3103919CBB694383B
:1056D0001E2991D28138298C9885B299227C1A9BF7
:1056E000A594885C2AB0E48202081E0092D1801141
:1056F00010BB2895C5C14818A898A397A05B3A91FC
:10570000D99303090D3892F18011A28A5E18A0B8CE
:1057100095128B2C10B5A81041A9CA1396B8185031
:10572000A0B94913B82F49A1F28002101F2900E146
:10573000A183828B4928C0991114F80010918B5CC9
:1057400048D89182A3893E4899A893858A1B7029DD
:105750000D9095A0A0514A1D98A5D3A130481D1ABF
:1057600081D3B10103A96B5C89B0A286A0187B1A12
:1057700099A195C29120281E1A01C3988195984D30
:105780003A800B80A7D2104A181C3A08D1A0848214
:105790008A08422D8D0292B8D397083B4D0809988C
:1057A000A5C29138381E192899C99601A8A1144B91
:1057B0001F188189B097A2096B181B1938C8D182AC
:1057C00022BA81704B0D008190B897811B7B081A1B
:1057D0000911D1B111319C18792A9C0281A0C0878E
:1057E000080B6A002B1B02F2A002119A39502C9C64
:1057F00031A11AC987B18858282F2A80D2A003A1C5
:10580000A118040C0B21A52D88B7C3198290907A9A
:1058100008999804E2A193A4984C0189087BA0B050
:105820000131F0C2135B0C29002A8A03E3A821107E
:10583000D810612DAA21112F89A4A20B93A3906ED9
:10584000188A8921A1B996B5811D02C0017B19B9B9
:10585000211898E085808A00120B5C3989E9128151
:105860001BC097811D8181096C88B08120C1B10462
:10587000009A2D12B8387D19D902100AB887001D78
:1058800008021B5C08A09922A1AA9595902F10B040
:10589000817B29D982111AAA97810B1001996B2853
:1058A00089DA03120F91B5A32D10C0A3583ACA810B
:1058B00002199B86A2B94028B929732C8D82022E29
:1058C00019D3B31938E0B3315B9B1984091A58A076
:1058D000F1201899B007290E00012B4C90D3882194
:1058E000B0C183830A1F02B8017C19F0010019B806
:1058F00097002C0800095B18A8A803929B83B7B3F4
:105900003F28E092683BBA93833B9BA7930B4809DF
:105910009839411C0F92820A49F3C30038B9C32356
:105920005C9B00932A2B11E3E822080AA807291F91
:105930008081096BA0E3811098B104390D2A01A878
:10594000287989F002002BA997103F0890807B8866
:10595000C1910290A883A4883F28C892681AE802DF
:10596000001A9996102E1980904918A9B886811BA3
:1059700008A7913E18A8927A09F1931009A885000A
:105980001C3A00C801500AF903001BB8073A2F90CF
:10599000B3806A98D38011880A20018B1FA5A100CB
:1059A0007BB0D4114A99A1224B9C01930A8986A10C
:1059B0008B7819B892532E9B94A32A98A7103F086E
:1059C000A1904890E1A104881A00A42A2FB2B380C4
:1059D0007AD1C3204A8A80401BB99395880A13F371
:1059E000887B08B8836999F203298AC1053B8C0139
:1059F000B3088804C00A782AB994601CC884001BC4
:105A0000D1854B3D88B4800893B01A701AA9A3259C
:105A10000EB896012C98042C2C90C5001881983C47
:105A20004989A893148DD085003DA8042C1BC2B6CB
:105A3000290982093F19A1B08411AA99445C0CA1DB
:105A4000131CBA97113E8983191E91A4081920A925
:105A50008A7008F88349A9D2224CAAA420A8F2038C
:105A60005A0B808191A99295914E98A4292DC2A498
:105A70003A88A34A2FA1A40808010A1B21D3D121E7
:105A800029C0887CA0C32890B4085E88A10891A48E
:105A9000094B3889D91308E1807A08C04889C400C5
:105AA0005B88A129B195094B2898B90401F0007AC7
:105AB00088B048A8A5195B88B22AB2852B2D10B2F0
:105AC000C91318D21A6BC3C34A88823D8BA6928A27
:105AD00083588BD08481895B08A28AC107190D8203
